{
  "_format": "hh3-artifact-1",
  "contractName": "MafiaGame",
  "sourceName": "contracts/MafiaGame.sol",
  "abi": [
    {
      "inputs": [
        {
          "internalType": "address",
          "name": "_tokenAddress",
          "type": "address"
        }
      ],
      "stateMutability": "nonpayable",
      "type": "constructor"
    },
    {
      "inputs": [],
      "name": "ReentrancyGuardReentrantCall",
      "type": "error"
    },
    {
      "anonymous": false,
      "inputs": [
        {
          "indexed": true,
          "internalType": "uint256",
          "name": "gameId",
          "type": "uint256"
        },
        {
          "indexed": true,
          "internalType": "address",
          "name": "creator",
          "type": "address"
        }
      ],
      "name": "GameCreated",
      "type": "event"
    },
    {
      "anonymous": false,
      "inputs": [
        {
          "indexed": true,
          "internalType": "uint256",
          "name": "gameId",
          "type": "uint256"
        },
        {
          "indexed": false,
          "internalType": "enum MafiaGame.Team",
          "name": "winner",
          "type": "uint8"
        }
      ],
      "name": "GameEnded",
      "type": "event"
    },
    {
      "anonymous": false,
      "inputs": [
        {
          "indexed": true,
          "internalType": "uint256",
          "name": "gameId",
          "type": "uint256"
        },
        {
          "indexed": false,
          "internalType": "uint256",
          "name": "playerCount",
          "type": "uint256"
        }
      ],
      "name": "GameStarted",
      "type": "event"
    },
    {
      "anonymous": false,
      "inputs": [
        {
          "indexed": true,
          "internalType": "uint256",
          "name": "gameId",
          "type": "uint256"
        },
        {
          "indexed": false,
          "internalType": "enum MafiaGame.GameState",
          "name": "newState",
          "type": "uint8"
        }
      ],
      "name": "PhaseChanged",
      "type": "event"
    },
    {
      "anonymous": false,
      "inputs": [
        {
          "indexed": true,
          "internalType": "uint256",
          "name": "gameId",
          "type": "uint256"
        },
        {
          "indexed": true,
          "internalType": "address",
          "name": "player",
          "type": "address"
        }
      ],
      "name": "PlayerJoined",
      "type": "event"
    },
    {
      "anonymous": false,
      "inputs": [
        {
          "indexed": true,
          "internalType": "uint256",
          "name": "gameId",
          "type": "uint256"
        },
        {
          "indexed": true,
          "internalType": "address",
          "name": "player",
          "type": "address"
        }
      ],
      "name": "PlayerKilled",
      "type": "event"
    },
    {
      "anonymous": false,
      "inputs": [
        {
          "indexed": true,
          "internalType": "uint256",
          "name": "gameId",
          "type": "uint256"
        },
        {
          "indexed": true,
          "internalType": "address",
          "name": "player",
          "type": "address"
        },
        {
          "indexed": false,
          "internalType": "uint256",
          "name": "amount",
          "type": "uint256"
        }
      ],
      "name": "RewardIssued",
      "type": "event"
    },
    {
      "anonymous": false,
      "inputs": [
        {
          "indexed": true,
          "internalType": "uint256",
          "name": "gameId",
          "type": "uint256"
        },
        {
          "indexed": true,
          "internalType": "address",
          "name": "voter",
          "type": "address"
        },
        {
          "indexed": true,
          "internalType": "address",
          "name": "target",
          "type": "address"
        }
      ],
      "name": "VoteCast",
      "type": "event"
    },
    {
      "inputs": [],
      "name": "MAX_PLAYERS",
      "outputs": [
        {
          "internalType": "uint256",
          "name": "",
          "type": "uint256"
        }
      ],
      "stateMutability": "view",
      "type": "function"
    },
    {
      "inputs": [],
      "name": "MIN_PLAYERS",
      "outputs": [
        {
          "internalType": "uint256",
          "name": "",
          "type": "uint256"
        }
      ],
      "stateMutability": "view",
      "type": "function"
    },
    {
      "inputs": [],
      "name": "PHASE_DURATION",
      "outputs": [
        {
          "internalType": "uint256",
          "name": "",
          "type": "uint256"
        }
      ],
      "stateMutability": "view",
      "type": "function"
    },
    {
      "inputs": [],
      "name": "REWARD_PER_WIN",
      "outputs": [
        {
          "internalType": "uint256",
          "name": "",
          "type": "uint256"
        }
      ],
      "stateMutability": "view",
      "type": "function"
    },
    {
      "inputs": [],
      "name": "createGame",
      "outputs": [
        {
          "internalType": "uint256",
          "name": "",
          "type": "uint256"
        }
      ],
      "stateMutability": "nonpayable",
      "type": "function"
    },
    {
      "inputs": [
        {
          "internalType": "uint256",
          "name": "gameId",
          "type": "uint256"
        },
        {
          "internalType": "address",
          "name": "target",
          "type": "address"
        }
      ],
      "name": "doctorHeal",
      "outputs": [],
      "stateMutability": "nonpayable",
      "type": "function"
    },
    {
      "inputs": [
        {
          "internalType": "uint256",
          "name": "gameId",
          "type": "uint256"
        }
      ],
      "name": "endNight",
      "outputs": [],
      "stateMutability": "nonpayable",
      "type": "function"
    },
    {
      "inputs": [
        {
          "internalType": "uint256",
          "name": "gameId",
          "type": "uint256"
        }
      ],
      "name": "endVoting",
      "outputs": [],
      "stateMutability": "nonpayable",
      "type": "function"
    },
    {
      "inputs": [],
      "name": "gameCounter",
      "outputs": [
        {
          "internalType": "uint256",
          "name": "",
          "type": "uint256"
        }
      ],
      "stateMutability": "view",
      "type": "function"
    },
    {
      "inputs": [
        {
          "internalType": "uint256",
          "name": "gameId",
          "type": "uint256"
        }
      ],
      "name": "getGameInfo",
      "outputs": [
        {
          "internalType": "enum MafiaGame.GameState",
          "name": "state",
          "type": "uint8"
        },
        {
          "internalType": "uint256",
          "name": "playerCount",
          "type": "uint256"
        },
        {
          "internalType": "uint256",
          "name": "aliveCount",
          "type": "uint256"
        },
        {
          "internalType": "uint256",
          "name": "phaseEndTime",
          "type": "uint256"
        },
        {
          "internalType": "enum MafiaGame.Team",
          "name": "winner",
          "type": "uint8"
        }
      ],
      "stateMutability": "view",
      "type": "function"
    },
    {
      "inputs": [
        {
          "internalType": "uint256",
          "name": "gameId",
          "type": "uint256"
        },
        {
          "internalType": "address",
          "name": "player",
          "type": "address"
        }
      ],
      "name": "getPlayerInfo",
      "outputs": [
        {
          "internalType": "enum MafiaGame.Role",
          "name": "role",
          "type": "uint8"
        },
        {
          "internalType": "bool",
          "name": "isAlive",
          "type": "bool"
        },
        {
          "internalType": "bool",
          "name": "hasVoted",
          "type": "bool"
        },
        {
          "internalType": "uint256",
          "name": "votesReceived",
          "type": "uint256"
        }
      ],
      "stateMutability": "view",
      "type": "function"
    },
    {
      "inputs": [
        {
          "internalType": "uint256",
          "name": "gameId",
          "type": "uint256"
        }
      ],
      "name": "getPlayers",
      "outputs": [
        {
          "internalType": "address[]",
          "name": "",
          "type": "address[]"
        }
      ],
      "stateMutability": "view",
      "type": "function"
    },
    {
      "inputs": [
        {
          "internalType": "uint256",
          "name": "gameId",
          "type": "uint256"
        },
        {
          "internalType": "address",
          "name": "player",
          "type": "address"
        }
      ],
      "name": "isPlayerInGame",
      "outputs": [
        {
          "internalType": "bool",
          "name": "",
          "type": "bool"
        }
      ],
      "stateMutability": "view",
      "type": "function"
    },
    {
      "inputs": [
        {
          "internalType": "uint256",
          "name": "gameId",
          "type": "uint256"
        }
      ],
      "name": "joinGame",
      "outputs": [],
      "stateMutability": "nonpayable",
      "type": "function"
    },
    {
      "inputs": [
        {
          "internalType": "uint256",
          "name": "gameId",
          "type": "uint256"
        },
        {
          "internalType": "address",
          "name": "target",
          "type": "address"
        }
      ],
      "name": "mafiaKill",
      "outputs": [],
      "stateMutability": "nonpayable",
      "type": "function"
    },
    {
      "inputs": [],
      "name": "rewardToken",
      "outputs": [
        {
          "internalType": "contract MafiaToken",
          "name": "",
          "type": "address"
        }
      ],
      "stateMutability": "view",
      "type": "function"
    },
    {
      "inputs": [
        {
          "internalType": "uint256",
          "name": "gameId",
          "type": "uint256"
        }
      ],
      "name": "startGame",
      "outputs": [],
      "stateMutability": "nonpayable",
      "type": "function"
    },
    {
      "inputs": [
        {
          "internalType": "uint256",
          "name": "gameId",
          "type": "uint256"
        }
      ],
      "name": "startVoting",
      "outputs": [],
      "stateMutability": "nonpayable",
      "type": "function"
    },
    {
      "inputs": [
        {
          "internalType": "uint256",
          "name": "gameId",
          "type": "uint256"
        },
        {
          "internalType": "address",
          "name": "target",
          "type": "address"
        }
      ],
      "name": "voteToEject",
      "outputs": [],
      "stateMutability": "nonpayable",
      "type": "function"
    }
  ],
  "bytecode": "0x608060405234801561000f575f5ffd5b50604051613d7d380380613d7d833981810160405281019061003191906100dc565b60015f819055508060015f6101000a81548173ffffffffffffffffffffffffffffffffffffffff021916908373ffffffffffffffffffffffffffffffffffffffff16021790555050610107565b5f5ffd5b5f73ffffffffffffffffffffffffffffffffffffffff82169050919050565b5f6100ab82610082565b9050919050565b6100bb816100a1565b81146100c5575f5ffd5b50565b5f815190506100d6816100b2565b92915050565b5f602082840312156100f1576100f061007e565b5b5f6100fe848285016100c8565b91505092915050565b613c69806101145f395ff3fe608060405234801561000f575f5ffd5b506004361061011f575f3560e01c8063555382b0116100ab578063e5ed1d591161006f578063e5ed1d591461030e578063ea99c3fe1461032a578063ed195c1814610346578063efaa55a014610362578063f7c618c11461037e5761011f565b8063555382b01461027c57806356a438f514610298578063649f89a5146102b65780637255d729146102d257806385f07bbe146102f05761011f565b80633d2f5bda116100f25780633d2f5bda146101c05780634411b3eb146101dc578063460e2049146101fa57806347e1d5501461022a5780634ae2b8491461025e5761011f565b80630d3b404f1461012357806319460c69146101535780632e0be39a1461016f5780633ccd10e91461018d575b5f5ffd5b61013d60048036038101906101389190612eef565b61039c565b60405161014a9190612f47565b60405180910390f35b61016d60048036038101906101689190612eef565b610401565b005b610177610839565b6040516101849190612f6f565b60405180910390f35b6101a760048036038101906101a29190612eef565b61083f565b6040516101b79493929190612ffb565b60405180910390f35b6101da60048036038101906101d5919061303e565b6108e4565b005b6101e4610ab7565b6040516101f19190612f6f565b60405180910390f35b610214600480360381019061020f919061303e565b610abc565b6040516102219190613120565b60405180910390f35b610244600480360381019061023f919061303e565b610b5b565b6040516102559594939291906131cc565b60405180910390f35b610266610bba565b6040516102739190612f6f565b60405180910390f35b61029660048036038101906102919190612eef565b610bc0565b005b6102a0610f89565b6040516102ad9190612f6f565b60405180910390f35b6102d060048036038101906102cb919061303e565b610f96565b005b6102da61123a565b6040516102e79190612f6f565b60405180910390f35b6102f861134b565b6040516103059190612f6f565b60405180910390f35b6103286004803603810190610323919061303e565b611350565b005b610344600480360381019061033f919061303e565b6115fd565b005b610360600480360381019061035b9190612eef565b6119c5565b005b61037c6004803603810190610377919061303e565b611ec9565b005b610386612309565b6040516103939190613278565b60405180910390f35b5f60035f8481526020019081526020015f20600b015f8373ffffffffffffffffffffffffffffffffffffffff1673ffffffffffffffffffffffffffffffffffffffff1681526020019081526020015f205f9054906101000a900460ff16905092915050565b8160035f8281526020019081526020015f2060080160019054906101000a900460ff16610463576040517f08c379a000000000000000000000000000000000000000000000000000000000815260040161045a906132eb565b60405180910390fd5b8260035f8281526020019081526020015f20600b015f3373ffffffffffffffffffffffffffffffffffffffff1673ffffffffffffffffffffffffffffffffffffffff1681526020019081526020015f205f9054906101000a900460ff166104ff576040517f08c379a00000000000000000000000000000000000000000000000000000000081526004016104f690613353565b60405180910390fd5b8360035f8281526020019081526020015f20600a015f3373ffffffffffffffffffffffffffffffffffffffff1673ffffffffffffffffffffffffffffffffffffffff1681526020019081526020015f205f0160159054906101000a900460ff1661059e576040517f08c379a0000000000000000000000000000000000000000000000000000000008152600401610595906133bb565b60405180910390fd5b8460018060048111156105b4576105b3612f88565b5b60035f8481526020019081526020015f2060010160149054906101000a900460ff1660048111156105e8576105e7612f88565b5b14610628576040517f08c379a000000000000000000000000000000000000000000000000000000000815260040161061f90613423565b60405180910390fd5b5f60035f8981526020019081526020015f209050600160038111156106505761064f612f88565b5b81600a015f3373ffffffffffffffffffffffffffffffffffffffff1673ffffffffffffffffffffffffffffffffffffffff1681526020019081526020015f205f0160149054906101000a900460ff1660038111156106b1576106b0612f88565b5b146106f1576040517f08c379a00000000000000000000000000000000000000000000000000000000081526004016106e89061348b565b60405180910390fd5b80600a015f8873ffffffffffffffffffffffffffffffffffffffff1673ffffffffffffffffffffffffffffffffffffffff1681526020019081526020015f205f0160159054906101000a900460ff1661077f576040517f08c379a0000000000000000000000000000000000000000000000000000000008152600401610776906134f3565b60405180910390fd5b3373ffffffffffffffffffffffffffffffffffffffff168773ffffffffffffffffffffffffffffffffffffffff16036107ed576040517f08c379a00000000000000000000000000000000000000000000000000000000081526004016107e49061355b565b60405180910390fd5b8681600c015f6101000a81548173ffffffffffffffffffffffffffffffffffffffff021916908373ffffffffffffffffffffffffffffffffffffffff1602179055505050505050505050565b60025481565b5f5f5f5f5f60035f8881526020019081526020015f2090505f81600a015f8873ffffffffffffffffffffffffffffffffffffffff1673ffffffffffffffffffffffffffffffffffffffff1681526020019081526020015f209050805f0160149054906101000a900460ff16815f0160159054906101000a900460ff16825f0160169054906101000a900460ff1683600101549550955095509550505092959194509250565b8060035f8281526020019081526020015f2060080160019054906101000a900460ff16610946576040517f08c379a000000000000000000000000000000000000000000000000000000000815260040161093d906132eb565b60405180910390fd5b81600280600481111561095c5761095b612f88565b5b60035f8481526020019081526020015f2060010160149054906101000a900460ff1660048111156109905761098f612f88565b5b146109d0576040517f08c379a00000000000000000000000000000000000000000000000000000000081526004016109c790613423565b60405180910390fd5b5f60035f8681526020019081526020015f2090508060060154421015610a2b576040517f08c379a0000000000000000000000000000000000000000000000000000000008152600401610a22906135c3565b60405180910390fd5b60038160010160146101000a81548160ff02191690836004811115610a5357610a52612f88565b5b021790555061012c42610a66919061360e565b81600601819055505f81600f0181905550847f70eca82567b065893a5e6cc590178b6b320855676b6a9a066625933e0c8ebe586003604051610aa89190613641565b60405180910390a25050505050565b600a81565b606060035f8381526020019081526020015f20600901805480602002602001604051908101604052809291908181526020018280548015610b4f57602002820191905f5260205f20905b815f9054906101000a900473ffffffffffffffffffffffffffffffffffffffff1673ffffffffffffffffffffffffffffffffffffffff1681526020019060010190808311610b06575b50505050509050919050565b5f5f5f5f5f5f60035f8881526020019081526020015f2090508060010160149054906101000a900460ff16816002015482600301548360060154846008015f9054906101000a900460ff16955095509550955095505091939590929450565b61012c81565b8160035f8281526020019081526020015f2060080160019054906101000a900460ff16610c22576040517f08c379a0000000000000000000000000000000000000000000000000000000008152600401610c19906132eb565b60405180910390fd5b8260035f8281526020019081526020015f20600b015f3373ffffffffffffffffffffffffffffffffffffffff1673ffffffffffffffffffffffffffffffffffffffff1681526020019081526020015f205f9054906101000a900460ff16610cbe576040517f08c379a0000000000000000000000000000000000000000000000000000000008152600401610cb590613353565b60405180910390fd5b8360035f8281526020019081526020015f20600a015f3373ffffffffffffffffffffffffffffffffffffffff1673ffffffffffffffffffffffffffffffffffffffff1681526020019081526020015f205f0160159054906101000a900460ff16610d5d576040517f08c379a0000000000000000000000000000000000000000000000000000000008152600401610d54906133bb565b60405180910390fd5b846001806004811115610d7357610d72612f88565b5b60035f8481526020019081526020015f2060010160149054906101000a900460ff166004811115610da757610da6612f88565b5b14610de7576040517f08c379a0000000000000000000000000000000000000000000000000000000008152600401610dde90613423565b60405180910390fd5b5f60035f8981526020019081526020015f209050600380811115610e0e57610e0d612f88565b5b81600a015f3373ffffffffffffffffffffffffffffffffffffffff1673ffffffffffffffffffffffffffffffffffffffff1681526020019081526020015f205f0160149054906101000a900460ff166003811115610e6f57610e6e612f88565b5b14610eaf576040517f08c379a0000000000000000000000000000000000000000000000000000000008152600401610ea6906136a4565b60405180910390fd5b80600a015f8873ffffffffffffffffffffffffffffffffffffffff1673ffffffffffffffffffffffffffffffffffffffff1681526020019081526020015f205f0160159054906101000a900460ff16610f3d576040517f08c379a0000000000000000000000000000000000000000000000000000000008152600401610f34906134f3565b60405180910390fd5b8681600d015f6101000a81548173ffffffffffffffffffffffffffffffffffffffff021916908373ffffffffffffffffffffffffffffffffffffffff1602179055505050505050505050565b68056bc75e2d6310000081565b8060035f8281526020019081526020015f2060080160019054906101000a900460ff16610ff8576040517f08c379a0000000000000000000000000000000000000000000000000000000008152600401610fef906132eb565b60405180910390fd5b81600380600481111561100e5761100d612f88565b5b60035f8481526020019081526020015f2060010160149054906101000a900460ff16600481111561104257611041612f88565b5b14611082576040517f08c379a000000000000000000000000000000000000000000000000000000000815260040161107990613423565b60405180910390fd5b5f60035f8681526020019081526020015f2090508060060154421015806110b15750806003015481600f015410155b6110f0576040517f08c379a00000000000000000000000000000000000000000000000000000000081526004016110e79061370c565b60405180910390fd5b5f6110fa8661232e565b90505f73ffffffffffffffffffffffffffffffffffffffff168173ffffffffffffffffffffffffffffffffffffffff161461117e57611139868261244a565b8073ffffffffffffffffffffffffffffffffffffffff16867f17bbddf7564415da2a525f1a441df1385857f5438a6c5836a1a5d71fa1c1bb8c60405160405180910390a35b6111878661258c565b611190866126a5565b1561119c575050611234565b60018260010160146101000a81548160ff021916908360048111156111c4576111c3612f88565b5b0217905550816007015f8154809291906111dd9061372a565b919050555061012c426111f0919061360e565b8260060181905550857f70eca82567b065893a5e6cc590178b6b320855676b6a9a066625933e0c8ebe5860016040516112299190613641565b60405180910390a250505b50505050565b5f60025f81548092919061124d9061372a565b91905055505f60025490505f60035f8381526020019081526020015f20905081815f018190555033816001015f6101000a81548173ffffffffffffffffffffffffffffffffffffffff021916908373ffffffffffffffffffffffffffffffffffffffff1602179055505f8160010160146101000a81548160ff021916908360048111156112dd576112dc612f88565b5b021790555060018160080160016101000a81548160ff0219169083151502179055503373ffffffffffffffffffffffffffffffffffffffff16827fc3e0f84839dc888c892a013d10c8f9d6dc05a21a879d0ce468ca558013e9121c60405160405180910390a3819250505090565b600381565b8060035f8281526020019081526020015f2060080160019054906101000a900460ff166113b2576040517f08c379a00000000000000000000000000000000000000000000000000000000081526004016113a9906132eb565b60405180910390fd5b815f8060048111156113c7576113c6612f88565b5b60035f8481526020019081526020015f2060010160149054906101000a900460ff1660048111156113fb576113fa612f88565b5b1461143b576040517f08c379a000000000000000000000000000000000000000000000000000000000815260040161143290613423565b60405180910390fd5b5f60035f8681526020019081526020015f209050806001015f9054906101000a900473ffffffffffffffffffffffffffffffffffffffff1673ffffffffffffffffffffffffffffffffffffffff163373ffffffffffffffffffffffffffffffffffffffff16146114e0576040517f08c379a00000000000000000000000000000000000000000000000000000000081526004016114d7906137bb565b60405180910390fd5b600381600201541015611528576040517f08c379a000000000000000000000000000000000000000000000000000000000815260040161151f90613823565b60405180910390fd5b61153185612708565b60018160010160146101000a81548160ff0219169083600481111561155957611558612f88565b5b02179055508060020154816003018190555061012c42611579919061360e565b8160060181905550847fa2dfaa3573b86004ec9d4d4abe5068d942579c59da4da8cd0d9e45e71a393bc182600201546040516115b59190612f6f565b60405180910390a2847f70eca82567b065893a5e6cc590178b6b320855676b6a9a066625933e0c8ebe5860016040516115ee9190613641565b60405180910390a25050505050565b8060035f8281526020019081526020015f2060080160019054906101000a900460ff1661165f576040517f08c379a0000000000000000000000000000000000000000000000000000000008152600401611656906132eb565b60405180910390fd5b81600180600481111561167557611674612f88565b5b60035f8481526020019081526020015f2060010160149054906101000a900460ff1660048111156116a9576116a8612f88565b5b146116e9576040517f08c379a00000000000000000000000000000000000000000000000000000000081526004016116e090613423565b60405180910390fd5b5f60035f8681526020019081526020015f2090508060060154421015611744576040517f08c379a000000000000000000000000000000000000000000000000000000000815260040161173b9061388b565b60405180910390fd5b5f73ffffffffffffffffffffffffffffffffffffffff1681600c015f9054906101000a900473ffffffffffffffffffffffffffffffffffffffff1673ffffffffffffffffffffffffffffffffffffffff16146118a95780600d015f9054906101000a900473ffffffffffffffffffffffffffffffffffffffff1673ffffffffffffffffffffffffffffffffffffffff1681600c015f9054906101000a900473ffffffffffffffffffffffffffffffffffffffff1673ffffffffffffffffffffffffffffffffffffffff16146118a8576118408582600c015f9054906101000a900473ffffffffffffffffffffffffffffffffffffffff1661244a565b80600c015f9054906101000a900473ffffffffffffffffffffffffffffffffffffffff1673ffffffffffffffffffffffffffffffffffffffff16857f17bbddf7564415da2a525f1a441df1385857f5438a6c5836a1a5d71fa1c1bb8c60405160405180910390a35b5b5f81600c015f6101000a81548173ffffffffffffffffffffffffffffffffffffffff021916908373ffffffffffffffffffffffffffffffffffffffff1602179055505f81600d015f6101000a81548173ffffffffffffffffffffffffffffffffffffffff021916908373ffffffffffffffffffffffffffffffffffffffff160217905550611936856126a5565b1561194157506119bf565b60028160010160146101000a81548160ff0219169083600481111561196957611968612f88565b5b021790555061012c4261197c919061360e565b8160060181905550847f70eca82567b065893a5e6cc590178b6b320855676b6a9a066625933e0c8ebe5860026040516119b59190613641565b60405180910390a2505b50505050565b8160035f8281526020019081526020015f2060080160019054906101000a900460ff16611a27576040517f08c379a0000000000000000000000000000000000000000000000000000000008152600401611a1e906132eb565b60405180910390fd5b8260035f8281526020019081526020015f20600b015f3373ffffffffffffffffffffffffffffffffffffffff1673ffffffffffffffffffffffffffffffffffffffff1681526020019081526020015f205f9054906101000a900460ff16611ac3576040517f08c379a0000000000000000000000000000000000000000000000000000000008152600401611aba90613353565b60405180910390fd5b8360035f8281526020019081526020015f20600a015f3373ffffffffffffffffffffffffffffffffffffffff1673ffffffffffffffffffffffffffffffffffffffff1681526020019081526020015f205f0160159054906101000a900460ff16611b62576040517f08c379a0000000000000000000000000000000000000000000000000000000008152600401611b59906133bb565b60405180910390fd5b846003806004811115611b7857611b77612f88565b5b60035f8481526020019081526020015f2060010160149054906101000a900460ff166004811115611bac57611bab612f88565b5b14611bec576040517f08c379a0000000000000000000000000000000000000000000000000000000008152600401611be390613423565b60405180910390fd5b5f60035f8981526020019081526020015f20905080600a015f3373ffffffffffffffffffffffffffffffffffffffff1673ffffffffffffffffffffffffffffffffffffffff1681526020019081526020015f205f0160169054906101000a900460ff1615611c8f576040517f08c379a0000000000000000000000000000000000000000000000000000000008152600401611c86906138f3565b60405180910390fd5b80600a015f8873ffffffffffffffffffffffffffffffffffffffff1673ffffffffffffffffffffffffffffffffffffffff1681526020019081526020015f205f0160159054906101000a900460ff16611d1d576040517f08c379a0000000000000000000000000000000000000000000000000000000008152600401611d149061395b565b60405180910390fd5b8681600e015f3373ffffffffffffffffffffffffffffffffffffffff1673ffffffffffffffffffffffffffffffffffffffff1681526020019081526020015f205f6101000a81548173ffffffffffffffffffffffffffffffffffffffff021916908373ffffffffffffffffffffffffffffffffffffffff160217905550600181600a015f3373ffffffffffffffffffffffffffffffffffffffff1673ffffffffffffffffffffffffffffffffffffffff1681526020019081526020015f205f0160166101000a81548160ff02191690831515021790555080600a015f8873ffffffffffffffffffffffffffffffffffffffff1673ffffffffffffffffffffffffffffffffffffffff1681526020019081526020015f206001015f815480929190611e469061372a565b919050555080600f015f815480929190611e5f9061372a565b91905055508673ffffffffffffffffffffffffffffffffffffffff163373ffffffffffffffffffffffffffffffffffffffff16897fcfff1651bcea794952a516ce970ab17518a85210bd939aaeaac670a8d3e65ec760405160405180910390a45050505050505050565b8060035f8281526020019081526020015f2060080160019054906101000a900460ff16611f2b576040517f08c379a0000000000000000000000000000000000000000000000000000000008152600401611f22906132eb565b60405180910390fd5b815f806004811115611f4057611f3f612f88565b5b60035f8481526020019081526020015f2060010160149054906101000a900460ff166004811115611f7457611f73612f88565b5b14611fb4576040517f08c379a0000000000000000000000000000000000000000000000000000000008152600401611fab90613423565b60405180910390fd5b5f60035f8681526020019081526020015f20905080600b015f3373ffffffffffffffffffffffffffffffffffffffff1673ffffffffffffffffffffffffffffffffffffffff1681526020019081526020015f205f9054906101000a900460ff1615612054576040517f08c379a000000000000000000000000000000000000000000000000000000000815260040161204b906139c3565b60405180910390fd5b600a81600201541061209b576040517f08c379a000000000000000000000000000000000000000000000000000000000815260040161209290613a2b565b60405180910390fd5b600181600b015f3373ffffffffffffffffffffffffffffffffffffffff1673ffffffffffffffffffffffffffffffffffffffff1681526020019081526020015f205f6101000a81548160ff0219169083151502179055508060090133908060018154018082558091505060019003905f5260205f20015f9091909190916101000a81548173ffffffffffffffffffffffffffffffffffffffff021916908373ffffffffffffffffffffffffffffffffffffffff160217905550806002015f8154809291906121689061372a565b91905055506040518060a001604052803373ffffffffffffffffffffffffffffffffffffffff1681526020015f60038111156121a7576121a6612f88565b5b81526020016001151581526020015f151581526020015f81525081600a015f3373ffffffffffffffffffffffffffffffffffffffff1673ffffffffffffffffffffffffffffffffffffffff1681526020019081526020015f205f820151815f015f6101000a81548173ffffffffffffffffffffffffffffffffffffffff021916908373ffffffffffffffffffffffffffffffffffffffff1602179055506020820151815f0160146101000a81548160ff0219169083600381111561226e5761226d612f88565b5b02179055506040820151815f0160156101000a81548160ff0219169083151502179055506060820151815f0160166101000a81548160ff021916908315150217905550608082015181600101559050503373ffffffffffffffffffffffffffffffffffffffff16857f87969bc7faf902221a147b95ceba76e011c5efb0339a0a8ee7a2bb82d9cfbbd660405160405180910390a35050505050565b60015f9054906101000a900473ffffffffffffffffffffffffffffffffffffffff1681565b5f5f60035f8481526020019081526020015f2090505f5f90505f5f90505f5f90505b836002015481101561243e575f84600901828154811061237357612372613a49565b5b905f5260205f20015f9054906101000a900473ffffffffffffffffffffffffffffffffffffffff1690508285600a015f8373ffffffffffffffffffffffffffffffffffffffff1673ffffffffffffffffffffffffffffffffffffffff1681526020019081526020015f206001015411156124305784600a015f8273ffffffffffffffffffffffffffffffffffffffff1673ffffffffffffffffffffffffffffffffffffffff1681526020019081526020015f206001015492508093505b508080600101915050612350565b50819350505050919050565b5f60035f8481526020019081526020015f2090505f81600a015f8473ffffffffffffffffffffffffffffffffffffffff1673ffffffffffffffffffffffffffffffffffffffff1681526020019081526020015f205f0160156101000a81548160ff021916908315150217905550806003015f8154809291906124cb90613a76565b91905055505f81600a015f8473ffffffffffffffffffffffffffffffffffffffff1673ffffffffffffffffffffffffffffffffffffffff1681526020019081526020015f205f0160149054906101000a900460ff1690506001600381111561253657612535612f88565b5b81600381111561254957612548612f88565b5b0361256c57816004015f81548092919061256290613a76565b9190505550612586565b816005015f81548092919061258090613a76565b91905055505b50505050565b5f60035f8381526020019081526020015f2090505f5f90505b81600201548110156126a0575f8260090182815481106125c8576125c7613a49565b5b905f5260205f20015f9054906101000a900473ffffffffffffffffffffffffffffffffffffffff1690505f83600a015f8373ffffffffffffffffffffffffffffffffffffffff1673ffffffffffffffffffffffffffffffffffffffff1681526020019081526020015f205f0160166101000a81548160ff0219169083151502179055505f83600a015f8373ffffffffffffffffffffffffffffffffffffffff1673ffffffffffffffffffffffffffffffffffffffff1681526020019081526020015f20600101819055505080806001019150506125a5565b505050565b5f5f60035f8481526020019081526020015f20905080600501548160040154106126de576126d4836001612981565b6001915050612703565b5f8160040154036126fe576126f4836002612981565b6001915050612703565b5f9150505b919050565b5f60035f8381526020019081526020015f2090505f6003826002015461272e9190613aca565b90505f810361273c57600190505b5f42448560405160200161275293929190613b1a565b604051602081830303815290604052805190602001205f1c90505f5f90505b8360020154811015612970575f84600901828154811061279457612793613a49565b5b905f5260205f20015f9054906101000a900473ffffffffffffffffffffffffffffffffffffffff1690508382101561284e57600185600a015f8373ffffffffffffffffffffffffffffffffffffffff1673ffffffffffffffffffffffffffffffffffffffff1681526020019081526020015f205f0160146101000a81548160ff0219169083600381111561282b5761282a612f88565b5b0217905550846004015f8154809291906128449061372a565b9190505550612962565b8382036128dd57600385600a015f8373ffffffffffffffffffffffffffffffffffffffff1673ffffffffffffffffffffffffffffffffffffffff1681526020019081526020015f205f0160146101000a81548160ff021916908360038111156128ba576128b9612f88565b5b0217905550846005015f8154809291906128d39061372a565b9190505550612961565b600285600a015f8373ffffffffffffffffffffffffffffffffffffffff1673ffffffffffffffffffffffffffffffffffffffff1681526020019081526020015f205f0160146101000a81548160ff0219169083600381111561294257612941612f88565b5b0217905550846005015f81548092919061295b9061372a565b91905055505b5b508080600101915050612771565b5061297b8482612c9a565b50505050565b5f60035f8481526020019081526020015f20905060048160010160146101000a81548160ff021916908360048111156129bd576129bc612f88565b5b021790555081816008015f6101000a81548160ff021916908360028111156129e8576129e7612f88565b5b02179055505f5f90505b8160020154811015612c5c575f826009018281548110612a1557612a14613a49565b5b905f5260205f20015f9054906101000a900473ffffffffffffffffffffffffffffffffffffffff1690505f83600a015f8373ffffffffffffffffffffffffffffffffffffffff1673ffffffffffffffffffffffffffffffffffffffff1681526020019081526020015f2090505f60016002811115612a9657612a95612f88565b5b866002811115612aa957612aa8612f88565b5b148015612aea575060016003811115612ac557612ac4612f88565b5b825f0160149054906101000a900460ff166003811115612ae857612ae7612f88565b5b145b80612b595750600280811115612b0357612b02612f88565b5b866002811115612b1657612b15612f88565b5b148015612b58575060016003811115612b3257612b31612f88565b5b825f0160149054906101000a900460ff166003811115612b5557612b54612f88565b5b14155b5b90508015612c4c5760015f9054906101000a900473ffffffffffffffffffffffffffffffffffffffff1673ffffffffffffffffffffffffffffffffffffffff166340c10f198468056bc75e2d631000006040518363ffffffff1660e01b8152600401612bc6929190613b65565b5f604051808303815f87803b158015612bdd575f5ffd5b505af1158015612bef573d5f5f3e3d5ffd5b505050508273ffffffffffffffffffffffffffffffffffffffff16877fe0cd90766c15f7b4f6005cfeac58557360ca7dad41abeeb585e961cda38da3c168056bc75e2d63100000604051612c439190612f6f565b60405180910390a35b50505080806001019150506129f2565b50827ff0da077ba749b17fae9e0aa141a4ce662e2a41574315eb32ce4aaaa5b75850d383604051612c8d9190613b8c565b60405180910390a2505050565b5f60035f8481526020019081526020015f2090505f816002015490505f5f90505b81811015612e57575f8183612cd09190613ba5565b8583604051602001612ce3929190613bd8565b604051602081830303815290604052805190602001205f1c612d059190613c03565b82612d10919061360e565b90505f846009018381548110612d2957612d28613a49565b5b905f5260205f20015f9054906101000a900473ffffffffffffffffffffffffffffffffffffffff169050846009018281548110612d6957612d68613a49565b5b905f5260205f20015f9054906101000a900473ffffffffffffffffffffffffffffffffffffffff16856009018481548110612da757612da6613a49565b5b905f5260205f20015f6101000a81548173ffffffffffffffffffffffffffffffffffffffff021916908373ffffffffffffffffffffffffffffffffffffffff16021790555080856009018381548110612e0357612e02613a49565b5b905f5260205f20015f6101000a81548173ffffffffffffffffffffffffffffffffffffffff021916908373ffffffffffffffffffffffffffffffffffffffff16021790555050508080600101915050612cbb565b5050505050565b5f5ffd5b5f819050919050565b612e7481612e62565b8114612e7e575f5ffd5b50565b5f81359050612e8f81612e6b565b92915050565b5f73ffffffffffffffffffffffffffffffffffffffff82169050919050565b5f612ebe82612e95565b9050919050565b612ece81612eb4565b8114612ed8575f5ffd5b50565b5f81359050612ee981612ec5565b92915050565b5f5f60408385031215612f0557612f04612e5e565b5b5f612f1285828601612e81565b9250506020612f2385828601612edb565b9150509250929050565b5f8115159050919050565b612f4181612f2d565b82525050565b5f602082019050612f5a5f830184612f38565b92915050565b612f6981612e62565b82525050565b5f602082019050612f825f830184612f60565b92915050565b7f4e487b71000000000000000000000000000000000000000000000000000000005f52602160045260245ffd5b60048110612fc657612fc5612f88565b5b50565b5f819050612fd682612fb5565b919050565b5f612fe582612fc9565b9050919050565b612ff581612fdb565b82525050565b5f60808201905061300e5f830187612fec565b61301b6020830186612f38565b6130286040830185612f38565b6130356060830184612f60565b95945050505050565b5f6020828403121561305357613052612e5e565b5b5f61306084828501612e81565b91505092915050565b5f81519050919050565b5f82825260208201905092915050565b5f819050602082019050919050565b61309b81612eb4565b82525050565b5f6130ac8383613092565b60208301905092915050565b5f602082019050919050565b5f6130ce82613069565b6130d88185613073565b93506130e383613083565b805f5b838110156131135781516130fa88826130a1565b9750613105836130b8565b9250506001810190506130e6565b5085935050505092915050565b5f6020820190508181035f83015261313881846130c4565b905092915050565b6005811061315157613150612f88565b5b50565b5f81905061316182613140565b919050565b5f61317082613154565b9050919050565b61318081613166565b82525050565b6003811061319757613196612f88565b5b50565b5f8190506131a782613186565b919050565b5f6131b68261319a565b9050919050565b6131c6816131ac565b82525050565b5f60a0820190506131df5f830188613177565b6131ec6020830187612f60565b6131f96040830186612f60565b6132066060830185612f60565b61321360808301846131bd565b9695505050505050565b5f819050919050565b5f61324061323b61323684612e95565b61321d565b612e95565b9050919050565b5f61325182613226565b9050919050565b5f61326282613247565b9050919050565b61327281613258565b82525050565b5f60208201905061328b5f830184613269565b92915050565b5f82825260208201905092915050565b7f47616d6520646f6573206e6f74206578697374000000000000000000000000005f82015250565b5f6132d5601383613291565b91506132e0826132a1565b602082019050919050565b5f6020820190508181035f830152613302816132c9565b9050919050565b7f4e6f74206120706c6179657200000000000000000000000000000000000000005f82015250565b5f61333d600c83613291565b915061334882613309565b602082019050919050565b5f6020820190508181035f83015261336a81613331565b9050919050565b7f506c6179657220697320646561640000000000000000000000000000000000005f82015250565b5f6133a5600e83613291565b91506133b082613371565b602082019050919050565b5f6020820190508181035f8301526133d281613399565b9050919050565b7f496e76616c69642067616d6520737461746500000000000000000000000000005f82015250565b5f61340d601283613291565b9150613418826133d9565b602082019050919050565b5f6020820190508181035f83015261343a81613401565b9050919050565b7f4f6e6c79204d616669612063616e206b696c6c000000000000000000000000005f82015250565b5f613475601383613291565b915061348082613441565b602082019050919050565b5f6020820190508181035f8301526134a281613469565b9050919050565b7f54617267657420697320616c72656164792064656164000000000000000000005f82015250565b5f6134dd601683613291565b91506134e8826134a9565b602082019050919050565b5f6020820190508181035f83015261350a816134d1565b9050919050565b7f43616e6e6f742074617267657420796f757273656c66000000000000000000005f82015250565b5f613545601683613291565b915061355082613511565b602082019050919050565b5f6020820190508181035f83015261357281613539565b9050919050565b7f446179207068617365206e6f7420656e646564000000000000000000000000005f82015250565b5f6135ad601383613291565b91506135b882613579565b602082019050919050565b5f6020820190508181035f8301526135da816135a1565b9050919050565b7f4e487b71000000000000000000000000000000000000000000000000000000005f52601160045260245ffd5b5f61361882612e62565b915061362383612e62565b925082820190508082111561363b5761363a6135e1565b5b92915050565b5f6020820190506136545f830184613177565b92915050565b7f4f6e6c7920446f63746f722063616e206865616c0000000000000000000000005f82015250565b5f61368e601483613291565b91506136998261365a565b602082019050919050565b5f6020820190508181035f8301526136bb81613682565b9050919050565b7f566f74696e67206e6f7420636f6d706c657465000000000000000000000000005f82015250565b5f6136f6601383613291565b9150613701826136c2565b602082019050919050565b5f6020820190508181035f830152613723816136ea565b9050919050565b5f61373482612e62565b91507fffffffffffffffffffffffffffffffffffffffffffffffffffffffffffffffff8203613766576137656135e1565b5b600182019050919050565b7f4f6e6c792063726561746f722063616e207374617274000000000000000000005f82015250565b5f6137a5601683613291565b91506137b082613771565b602082019050919050565b5f6020820190508181035f8301526137d281613799565b9050919050565b7f4e6f7420656e6f75676820706c617965727300000000000000000000000000005f82015250565b5f61380d601283613291565b9150613818826137d9565b602082019050919050565b5f6020820190508181035f83015261383a81613801565b9050919050565b7f5068617365206e6f7420656e64656420796574000000000000000000000000005f82015250565b5f613875601383613291565b915061388082613841565b602082019050919050565b5f6020820190508181035f8301526138a281613869565b9050919050565b7f416c726561647920766f746564000000000000000000000000000000000000005f82015250565b5f6138dd600d83613291565b91506138e8826138a9565b602082019050919050565b5f6020820190508181035f83015261390a816138d1565b9050919050565b7f54617267657420697320646561640000000000000000000000000000000000005f82015250565b5f613945600e83613291565b915061395082613911565b602082019050919050565b5f6020820190508181035f83015261397281613939565b9050919050565b7f416c7265616479206a6f696e65640000000000000000000000000000000000005f82015250565b5f6139ad600e83613291565b91506139b882613979565b602082019050919050565b5f6020820190508181035f8301526139da816139a1565b9050919050565b7f47616d652069732066756c6c00000000000000000000000000000000000000005f82015250565b5f613a15600c83613291565b9150613a20826139e1565b602082019050919050565b5f6020820190508181035f830152613a4281613a09565b9050919050565b7f4e487b71000000000000000000000000000000000000000000000000000000005f52603260045260245ffd5b5f613a8082612e62565b91505f8203613a9257613a916135e1565b5b600182039050919050565b7f4e487b71000000000000000000000000000000000000000000000000000000005f52601260045260245ffd5b5f613ad482612e62565b9150613adf83612e62565b925082613aef57613aee613a9d565b5b828204905092915050565b5f819050919050565b613b14613b0f82612e62565b613afa565b82525050565b5f613b258286613b03565b602082019150613b358285613b03565b602082019150613b458284613b03565b602082019150819050949350505050565b613b5f81612eb4565b82525050565b5f604082019050613b785f830185613b56565b613b856020830184612f60565b9392505050565b5f602082019050613b9f5f8301846131bd565b92915050565b5f613baf82612e62565b9150613bba83612e62565b9250828203905081811115613bd257613bd16135e1565b5b92915050565b5f613be38285613b03565b602082019150613bf38284613b03565b6020820191508190509392505050565b5f613c0d82612e62565b9150613c1883612e62565b925082613c2857613c27613a9d565b5b82820690509291505056fea26469706673582212204557398a202029505d6b9dac3affd4827ede3d96b09866870a9393e1b890464264736f6c634300081c0033",
  "linkReferences": {},
  "deployedLinkReferences": {},
  "immutableReferences": {},
  "inputSourceName": "project/contracts/MafiaGame.sol",
  "buildInfoId": "solc-0_8_28-401ccc68a8098dde158a02af9dcb8e9799ebedbb"
}