{
  "_format": "hh3-artifact-1",
  "contractName": "MafiaGame",
  "sourceName": "contracts/MafiaGame.sol",
  "abi": [
    {
      "inputs": [
        {
          "internalType": "address",
          "name": "_tokenAddress",
          "type": "address"
        }
      ],
      "stateMutability": "nonpayable",
      "type": "constructor"
    },
    {
      "inputs": [],
      "name": "ReentrancyGuardReentrantCall",
      "type": "error"
    },
    {
      "anonymous": false,
      "inputs": [
        {
          "indexed": true,
          "internalType": "uint256",
          "name": "gameId",
          "type": "uint256"
        },
        {
          "indexed": true,
          "internalType": "address",
          "name": "creator",
          "type": "address"
        }
      ],
      "name": "GameCreated",
      "type": "event"
    },
    {
      "anonymous": false,
      "inputs": [
        {
          "indexed": true,
          "internalType": "uint256",
          "name": "gameId",
          "type": "uint256"
        },
        {
          "indexed": false,
          "internalType": "enum MafiaGame.Team",
          "name": "winner",
          "type": "uint8"
        }
      ],
      "name": "GameEnded",
      "type": "event"
    },
    {
      "anonymous": false,
      "inputs": [
        {
          "indexed": true,
          "internalType": "uint256",
          "name": "gameId",
          "type": "uint256"
        },
        {
          "indexed": false,
          "internalType": "uint256",
          "name": "playerCount",
          "type": "uint256"
        }
      ],
      "name": "GameStarted",
      "type": "event"
    },
    {
      "anonymous": false,
      "inputs": [
        {
          "indexed": true,
          "internalType": "uint256",
          "name": "gameId",
          "type": "uint256"
        },
        {
          "indexed": false,
          "internalType": "enum MafiaGame.GameState",
          "name": "newState",
          "type": "uint8"
        }
      ],
      "name": "PhaseChanged",
      "type": "event"
    },
    {
      "anonymous": false,
      "inputs": [
        {
          "indexed": true,
          "internalType": "uint256",
          "name": "gameId",
          "type": "uint256"
        },
        {
          "indexed": true,
          "internalType": "address",
          "name": "player",
          "type": "address"
        }
      ],
      "name": "PlayerJoined",
      "type": "event"
    },
    {
      "anonymous": false,
      "inputs": [
        {
          "indexed": true,
          "internalType": "uint256",
          "name": "gameId",
          "type": "uint256"
        },
        {
          "indexed": true,
          "internalType": "address",
          "name": "player",
          "type": "address"
        }
      ],
      "name": "PlayerKilled",
      "type": "event"
    },
    {
      "anonymous": false,
      "inputs": [
        {
          "indexed": true,
          "internalType": "uint256",
          "name": "gameId",
          "type": "uint256"
        },
        {
          "indexed": true,
          "internalType": "address",
          "name": "winner",
          "type": "address"
        },
        {
          "indexed": false,
          "internalType": "uint256",
          "name": "ethAmount",
          "type": "uint256"
        }
      ],
      "name": "PrizeDistributed",
      "type": "event"
    },
    {
      "anonymous": false,
      "inputs": [
        {
          "indexed": true,
          "internalType": "uint256",
          "name": "gameId",
          "type": "uint256"
        },
        {
          "indexed": true,
          "internalType": "address",
          "name": "player",
          "type": "address"
        },
        {
          "indexed": false,
          "internalType": "uint256",
          "name": "amount",
          "type": "uint256"
        }
      ],
      "name": "RewardIssued",
      "type": "event"
    },
    {
      "anonymous": false,
      "inputs": [
        {
          "indexed": true,
          "internalType": "uint256",
          "name": "gameId",
          "type": "uint256"
        },
        {
          "indexed": true,
          "internalType": "address",
          "name": "voter",
          "type": "address"
        },
        {
          "indexed": true,
          "internalType": "address",
          "name": "target",
          "type": "address"
        }
      ],
      "name": "VoteCast",
      "type": "event"
    },
    {
      "inputs": [],
      "name": "ENTRY_FEE",
      "outputs": [
        {
          "internalType": "uint256",
          "name": "",
          "type": "uint256"
        }
      ],
      "stateMutability": "view",
      "type": "function"
    },
    {
      "inputs": [],
      "name": "MAX_PLAYERS",
      "outputs": [
        {
          "internalType": "uint256",
          "name": "",
          "type": "uint256"
        }
      ],
      "stateMutability": "view",
      "type": "function"
    },
    {
      "inputs": [],
      "name": "MIN_PLAYERS",
      "outputs": [
        {
          "internalType": "uint256",
          "name": "",
          "type": "uint256"
        }
      ],
      "stateMutability": "view",
      "type": "function"
    },
    {
      "inputs": [],
      "name": "PHASE_DURATION",
      "outputs": [
        {
          "internalType": "uint256",
          "name": "",
          "type": "uint256"
        }
      ],
      "stateMutability": "view",
      "type": "function"
    },
    {
      "inputs": [],
      "name": "REWARD_PER_WIN",
      "outputs": [
        {
          "internalType": "uint256",
          "name": "",
          "type": "uint256"
        }
      ],
      "stateMutability": "view",
      "type": "function"
    },
    {
      "inputs": [],
      "name": "createGame",
      "outputs": [
        {
          "internalType": "uint256",
          "name": "",
          "type": "uint256"
        }
      ],
      "stateMutability": "nonpayable",
      "type": "function"
    },
    {
      "inputs": [
        {
          "internalType": "uint256",
          "name": "gameId",
          "type": "uint256"
        },
        {
          "internalType": "address",
          "name": "target",
          "type": "address"
        }
      ],
      "name": "doctorHeal",
      "outputs": [],
      "stateMutability": "nonpayable",
      "type": "function"
    },
    {
      "inputs": [
        {
          "internalType": "uint256",
          "name": "gameId",
          "type": "uint256"
        }
      ],
      "name": "endNight",
      "outputs": [],
      "stateMutability": "nonpayable",
      "type": "function"
    },
    {
      "inputs": [
        {
          "internalType": "uint256",
          "name": "gameId",
          "type": "uint256"
        }
      ],
      "name": "endVoting",
      "outputs": [],
      "stateMutability": "nonpayable",
      "type": "function"
    },
    {
      "inputs": [],
      "name": "gameCounter",
      "outputs": [
        {
          "internalType": "uint256",
          "name": "",
          "type": "uint256"
        }
      ],
      "stateMutability": "view",
      "type": "function"
    },
    {
      "inputs": [
        {
          "internalType": "uint256",
          "name": "gameId",
          "type": "uint256"
        }
      ],
      "name": "getGameInfo",
      "outputs": [
        {
          "internalType": "enum MafiaGame.GameState",
          "name": "",
          "type": "uint8"
        },
        {
          "internalType": "uint256",
          "name": "",
          "type": "uint256"
        },
        {
          "internalType": "uint256",
          "name": "",
          "type": "uint256"
        },
        {
          "internalType": "uint256",
          "name": "",
          "type": "uint256"
        },
        {
          "internalType": "enum MafiaGame.Team",
          "name": "",
          "type": "uint8"
        }
      ],
      "stateMutability": "view",
      "type": "function"
    },
    {
      "inputs": [
        {
          "internalType": "uint256",
          "name": "gameId",
          "type": "uint256"
        },
        {
          "internalType": "address",
          "name": "player",
          "type": "address"
        }
      ],
      "name": "getPlayerInfo",
      "outputs": [
        {
          "internalType": "enum MafiaGame.Role",
          "name": "",
          "type": "uint8"
        },
        {
          "internalType": "bool",
          "name": "",
          "type": "bool"
        },
        {
          "internalType": "bool",
          "name": "",
          "type": "bool"
        },
        {
          "internalType": "uint256",
          "name": "",
          "type": "uint256"
        }
      ],
      "stateMutability": "view",
      "type": "function"
    },
    {
      "inputs": [
        {
          "internalType": "uint256",
          "name": "gameId",
          "type": "uint256"
        }
      ],
      "name": "getPlayers",
      "outputs": [
        {
          "internalType": "address[]",
          "name": "",
          "type": "address[]"
        }
      ],
      "stateMutability": "view",
      "type": "function"
    },
    {
      "inputs": [
        {
          "internalType": "uint256",
          "name": "gameId",
          "type": "uint256"
        },
        {
          "internalType": "address",
          "name": "player",
          "type": "address"
        }
      ],
      "name": "isPlayerInGame",
      "outputs": [
        {
          "internalType": "bool",
          "name": "",
          "type": "bool"
        }
      ],
      "stateMutability": "view",
      "type": "function"
    },
    {
      "inputs": [
        {
          "internalType": "uint256",
          "name": "gameId",
          "type": "uint256"
        }
      ],
      "name": "joinGame",
      "outputs": [],
      "stateMutability": "payable",
      "type": "function"
    },
    {
      "inputs": [
        {
          "internalType": "uint256",
          "name": "gameId",
          "type": "uint256"
        },
        {
          "internalType": "address",
          "name": "target",
          "type": "address"
        }
      ],
      "name": "mafiaKill",
      "outputs": [],
      "stateMutability": "nonpayable",
      "type": "function"
    },
    {
      "inputs": [],
      "name": "rewardToken",
      "outputs": [
        {
          "internalType": "contract MafiaToken",
          "name": "",
          "type": "address"
        }
      ],
      "stateMutability": "view",
      "type": "function"
    },
    {
      "inputs": [
        {
          "internalType": "uint256",
          "name": "gameId",
          "type": "uint256"
        }
      ],
      "name": "startGame",
      "outputs": [],
      "stateMutability": "nonpayable",
      "type": "function"
    },
    {
      "inputs": [
        {
          "internalType": "uint256",
          "name": "gameId",
          "type": "uint256"
        }
      ],
      "name": "startVoting",
      "outputs": [],
      "stateMutability": "nonpayable",
      "type": "function"
    },
    {
      "inputs": [
        {
          "internalType": "uint256",
          "name": "gameId",
          "type": "uint256"
        },
        {
          "internalType": "address",
          "name": "target",
          "type": "address"
        }
      ],
      "name": "voteToEject",
      "outputs": [],
      "stateMutability": "nonpayable",
      "type": "function"
    }
  ],
  "bytecode": "0x608060405234801561000f575f5ffd5b506040516141dd3803806141dd833981810160405281019061003191906100dc565b60015f819055508060015f6101000a81548173ffffffffffffffffffffffffffffffffffffffff021916908373ffffffffffffffffffffffffffffffffffffffff16021790555050610107565b5f5ffd5b5f73ffffffffffffffffffffffffffffffffffffffff82169050919050565b5f6100ab82610082565b9050919050565b6100bb816100a1565b81146100c5575f5ffd5b50565b5f815190506100d6816100b2565b92915050565b5f602082840312156100f1576100f061007e565b5b5f6100fe848285016100c8565b91505092915050565b6140c9806101145f395ff3fe60806040526004361061011e575f3560e01c806356a438f51161009f578063ea99c3fe11610063578063ea99c3fe146103dd578063ed195c1814610405578063efaa55a01461042d578063f6d361cc14610449578063f7c618c1146104735761011e565b806356a438f51461030f578063649f89a5146103395780637255d7291461036157806385f07bbe1461038b578063e5ed1d59146103b55761011e565b80634411b3eb116100e65780634411b3eb14610217578063460e20491461024157806347e1d5501461027d5780634ae2b849146102bd578063555382b0146102e75761011e565b80630d3b404f1461012257806319460c691461015e5780632e0be39a146101865780633ccd10e9146101b05780633d2f5bda146101ef575b5f5ffd5b34801561012d575f5ffd5b50610148600480360381019061014391906132e7565b61049d565b604051610155919061333f565b60405180910390f35b348015610169575f5ffd5b50610184600480360381019061017f91906132e7565b610502565b005b348015610191575f5ffd5b5061019a61093a565b6040516101a79190613367565b60405180910390f35b3480156101bb575f5ffd5b506101d660048036038101906101d191906132e7565b610940565b6040516101e694939291906133f3565b60405180910390f35b3480156101fa575f5ffd5b5061021560048036038101906102109190613436565b6109e5565b005b348015610222575f5ffd5b5061022b610bb8565b6040516102389190613367565b60405180910390f35b34801561024c575f5ffd5b5061026760048036038101906102629190613436565b610bbd565b6040516102749190613518565b60405180910390f35b348015610288575f5ffd5b506102a3600480360381019061029e9190613436565b610c5c565b6040516102b49594939291906135c4565b60405180910390f35b3480156102c8575f5ffd5b506102d1610cbb565b6040516102de9190613367565b60405180910390f35b3480156102f2575f5ffd5b5061030d600480360381019061030891906132e7565b610cc1565b005b34801561031a575f5ffd5b5061032361108a565b6040516103309190613367565b60405180910390f35b348015610344575f5ffd5b5061035f600480360381019061035a9190613436565b611097565b005b34801561036c575f5ffd5b5061037561133b565b6040516103829190613367565b60405180910390f35b348015610396575f5ffd5b5061039f61144c565b6040516103ac9190613367565b60405180910390f35b3480156103c0575f5ffd5b506103db60048036038101906103d69190613436565b611451565b005b3480156103e8575f5ffd5b5061040360048036038101906103fe9190613436565b6116fe565b005b348015610410575f5ffd5b5061042b600480360381019061042691906132e7565b611ac6565b005b61044760048036038101906104429190613436565b611fca565b005b348015610454575f5ffd5b5061045d61246d565b60405161046a9190613367565b60405180910390f35b34801561047e575f5ffd5b50610487612478565b6040516104949190613670565b60405180910390f35b5f60035f8481526020019081526020015f20600b015f8373ffffffffffffffffffffffffffffffffffffffff1673ffffffffffffffffffffffffffffffffffffffff1681526020019081526020015f205f9054906101000a900460ff16905092915050565b8160035f8281526020019081526020015f2060080160019054906101000a900460ff16610564576040517f08c379a000000000000000000000000000000000000000000000000000000000815260040161055b906136e3565b60405180910390fd5b8260035f8281526020019081526020015f20600b015f3373ffffffffffffffffffffffffffffffffffffffff1673ffffffffffffffffffffffffffffffffffffffff1681526020019081526020015f205f9054906101000a900460ff16610600576040517f08c379a00000000000000000000000000000000000000000000000000000000081526004016105f79061374b565b60405180910390fd5b8360035f8281526020019081526020015f20600a015f3373ffffffffffffffffffffffffffffffffffffffff1673ffffffffffffffffffffffffffffffffffffffff1681526020019081526020015f205f0160159054906101000a900460ff1661069f576040517f08c379a0000000000000000000000000000000000000000000000000000000008152600401610696906137b3565b60405180910390fd5b8460018060048111156106b5576106b4613380565b5b60035f8481526020019081526020015f2060010160149054906101000a900460ff1660048111156106e9576106e8613380565b5b14610729576040517f08c379a00000000000000000000000000000000000000000000000000000000081526004016107209061381b565b60405180910390fd5b5f60035f8981526020019081526020015f2090506001600381111561075157610750613380565b5b81600a015f3373ffffffffffffffffffffffffffffffffffffffff1673ffffffffffffffffffffffffffffffffffffffff1681526020019081526020015f205f0160149054906101000a900460ff1660038111156107b2576107b1613380565b5b146107f2576040517f08c379a00000000000000000000000000000000000000000000000000000000081526004016107e990613883565b60405180910390fd5b80600a015f8873ffffffffffffffffffffffffffffffffffffffff1673ffffffffffffffffffffffffffffffffffffffff1681526020019081526020015f205f0160159054906101000a900460ff16610880576040517f08c379a0000000000000000000000000000000000000000000000000000000008152600401610877906138eb565b60405180910390fd5b3373ffffffffffffffffffffffffffffffffffffffff168773ffffffffffffffffffffffffffffffffffffffff16036108ee576040517f08c379a00000000000000000000000000000000000000000000000000000000081526004016108e590613953565b60405180910390fd5b8681600c015f6101000a81548173ffffffffffffffffffffffffffffffffffffffff021916908373ffffffffffffffffffffffffffffffffffffffff1602179055505050505050505050565b60025481565b5f5f5f5f5f60035f8881526020019081526020015f2090505f81600a015f8873ffffffffffffffffffffffffffffffffffffffff1673ffffffffffffffffffffffffffffffffffffffff1681526020019081526020015f209050805f0160149054906101000a900460ff16815f0160159054906101000a900460ff16825f0160169054906101000a900460ff1683600101549550955095509550505092959194509250565b8060035f8281526020019081526020015f2060080160019054906101000a900460ff16610a47576040517f08c379a0000000000000000000000000000000000000000000000000000000008152600401610a3e906136e3565b60405180910390fd5b816002806004811115610a5d57610a5c613380565b5b60035f8481526020019081526020015f2060010160149054906101000a900460ff166004811115610a9157610a90613380565b5b14610ad1576040517f08c379a0000000000000000000000000000000000000000000000000000000008152600401610ac89061381b565b60405180910390fd5b5f60035f8681526020019081526020015f2090508060060154421015610b2c576040517f08c379a0000000000000000000000000000000000000000000000000000000008152600401610b23906139bb565b60405180910390fd5b60038160010160146101000a81548160ff02191690836004811115610b5457610b53613380565b5b021790555061012c42610b679190613a06565b81600601819055505f81600f0181905550847f70eca82567b065893a5e6cc590178b6b320855676b6a9a066625933e0c8ebe586003604051610ba99190613a39565b60405180910390a25050505050565b600a81565b606060035f8381526020019081526020015f20600901805480602002602001604051908101604052809291908181526020018280548015610c5057602002820191905f5260205f20905b815f9054906101000a900473ffffffffffffffffffffffffffffffffffffffff1673ffffffffffffffffffffffffffffffffffffffff1681526020019060010190808311610c07575b50505050509050919050565b5f5f5f5f5f5f60035f8881526020019081526020015f2090508060010160149054906101000a900460ff16816002015482600301548360060154846008015f9054906101000a900460ff16955095509550955095505091939590929450565b61012c81565b8160035f8281526020019081526020015f2060080160019054906101000a900460ff16610d23576040517f08c379a0000000000000000000000000000000000000000000000000000000008152600401610d1a906136e3565b60405180910390fd5b8260035f8281526020019081526020015f20600b015f3373ffffffffffffffffffffffffffffffffffffffff1673ffffffffffffffffffffffffffffffffffffffff1681526020019081526020015f205f9054906101000a900460ff16610dbf576040517f08c379a0000000000000000000000000000000000000000000000000000000008152600401610db69061374b565b60405180910390fd5b8360035f8281526020019081526020015f20600a015f3373ffffffffffffffffffffffffffffffffffffffff1673ffffffffffffffffffffffffffffffffffffffff1681526020019081526020015f205f0160159054906101000a900460ff16610e5e576040517f08c379a0000000000000000000000000000000000000000000000000000000008152600401610e55906137b3565b60405180910390fd5b846001806004811115610e7457610e73613380565b5b60035f8481526020019081526020015f2060010160149054906101000a900460ff166004811115610ea857610ea7613380565b5b14610ee8576040517f08c379a0000000000000000000000000000000000000000000000000000000008152600401610edf9061381b565b60405180910390fd5b5f60035f8981526020019081526020015f209050600380811115610f0f57610f0e613380565b5b81600a015f3373ffffffffffffffffffffffffffffffffffffffff1673ffffffffffffffffffffffffffffffffffffffff1681526020019081526020015f205f0160149054906101000a900460ff166003811115610f7057610f6f613380565b5b14610fb0576040517f08c379a0000000000000000000000000000000000000000000000000000000008152600401610fa790613a9c565b60405180910390fd5b80600a015f8873ffffffffffffffffffffffffffffffffffffffff1673ffffffffffffffffffffffffffffffffffffffff1681526020019081526020015f205f0160159054906101000a900460ff1661103e576040517f08c379a0000000000000000000000000000000000000000000000000000000008152600401611035906138eb565b60405180910390fd5b8681600d015f6101000a81548173ffffffffffffffffffffffffffffffffffffffff021916908373ffffffffffffffffffffffffffffffffffffffff1602179055505050505050505050565b68056bc75e2d6310000081565b8060035f8281526020019081526020015f2060080160019054906101000a900460ff166110f9576040517f08c379a00000000000000000000000000000000000000000000000000000000081526004016110f0906136e3565b60405180910390fd5b81600380600481111561110f5761110e613380565b5b60035f8481526020019081526020015f2060010160149054906101000a900460ff16600481111561114357611142613380565b5b14611183576040517f08c379a000000000000000000000000000000000000000000000000000000000815260040161117a9061381b565b60405180910390fd5b5f60035f8681526020019081526020015f2090508060060154421015806111b25750806003015481600f015410155b6111f1576040517f08c379a00000000000000000000000000000000000000000000000000000000081526004016111e890613b04565b60405180910390fd5b5f6111fb8661249d565b90505f73ffffffffffffffffffffffffffffffffffffffff168173ffffffffffffffffffffffffffffffffffffffff161461127f5761123a86826125b9565b8073ffffffffffffffffffffffffffffffffffffffff16867f17bbddf7564415da2a525f1a441df1385857f5438a6c5836a1a5d71fa1c1bb8c60405160405180910390a35b611288866126f6565b6112918661280f565b1561129d575050611335565b60018260010160146101000a81548160ff021916908360048111156112c5576112c4613380565b5b0217905550816007015f8154809291906112de90613b22565b919050555061012c426112f19190613a06565b8260060181905550857f70eca82567b065893a5e6cc590178b6b320855676b6a9a066625933e0c8ebe58600160405161132a9190613a39565b60405180910390a250505b50505050565b5f60025f81548092919061134e90613b22565b91905055505f60025490505f60035f8381526020019081526020015f20905081815f018190555033816001015f6101000a81548173ffffffffffffffffffffffffffffffffffffffff021916908373ffffffffffffffffffffffffffffffffffffffff1602179055505f8160010160146101000a81548160ff021916908360048111156113de576113dd613380565b5b021790555060018160080160016101000a81548160ff0219169083151502179055503373ffffffffffffffffffffffffffffffffffffffff16827fc3e0f84839dc888c892a013d10c8f9d6dc05a21a879d0ce468ca558013e9121c60405160405180910390a3819250505090565b600381565b8060035f8281526020019081526020015f2060080160019054906101000a900460ff166114b3576040517f08c379a00000000000000000000000000000000000000000000000000000000081526004016114aa906136e3565b60405180910390fd5b815f8060048111156114c8576114c7613380565b5b60035f8481526020019081526020015f2060010160149054906101000a900460ff1660048111156114fc576114fb613380565b5b1461153c576040517f08c379a00000000000000000000000000000000000000000000000000000000081526004016115339061381b565b60405180910390fd5b5f60035f8681526020019081526020015f209050806001015f9054906101000a900473ffffffffffffffffffffffffffffffffffffffff1673ffffffffffffffffffffffffffffffffffffffff163373ffffffffffffffffffffffffffffffffffffffff16146115e1576040517f08c379a00000000000000000000000000000000000000000000000000000000081526004016115d890613bb3565b60405180910390fd5b600381600201541015611629576040517f08c379a000000000000000000000000000000000000000000000000000000000815260040161162090613c1b565b60405180910390fd5b61163285612872565b60018160010160146101000a81548160ff0219169083600481111561165a57611659613380565b5b02179055508060020154816003018190555061012c4261167a9190613a06565b8160060181905550847fa2dfaa3573b86004ec9d4d4abe5068d942579c59da4da8cd0d9e45e71a393bc182600201546040516116b69190613367565b60405180910390a2847f70eca82567b065893a5e6cc590178b6b320855676b6a9a066625933e0c8ebe5860016040516116ef9190613a39565b60405180910390a25050505050565b8060035f8281526020019081526020015f2060080160019054906101000a900460ff16611760576040517f08c379a0000000000000000000000000000000000000000000000000000000008152600401611757906136e3565b60405180910390fd5b81600180600481111561177657611775613380565b5b60035f8481526020019081526020015f2060010160149054906101000a900460ff1660048111156117aa576117a9613380565b5b146117ea576040517f08c379a00000000000000000000000000000000000000000000000000000000081526004016117e19061381b565b60405180910390fd5b5f60035f8681526020019081526020015f2090508060060154421015611845576040517f08c379a000000000000000000000000000000000000000000000000000000000815260040161183c90613c83565b60405180910390fd5b5f73ffffffffffffffffffffffffffffffffffffffff1681600c015f9054906101000a900473ffffffffffffffffffffffffffffffffffffffff1673ffffffffffffffffffffffffffffffffffffffff16146119aa5780600d015f9054906101000a900473ffffffffffffffffffffffffffffffffffffffff1673ffffffffffffffffffffffffffffffffffffffff1681600c015f9054906101000a900473ffffffffffffffffffffffffffffffffffffffff1673ffffffffffffffffffffffffffffffffffffffff16146119a9576119418582600c015f9054906101000a900473ffffffffffffffffffffffffffffffffffffffff166125b9565b80600c015f9054906101000a900473ffffffffffffffffffffffffffffffffffffffff1673ffffffffffffffffffffffffffffffffffffffff16857f17bbddf7564415da2a525f1a441df1385857f5438a6c5836a1a5d71fa1c1bb8c60405160405180910390a35b5b5f81600c015f6101000a81548173ffffffffffffffffffffffffffffffffffffffff021916908373ffffffffffffffffffffffffffffffffffffffff1602179055505f81600d015f6101000a81548173ffffffffffffffffffffffffffffffffffffffff021916908373ffffffffffffffffffffffffffffffffffffffff160217905550611a378561280f565b15611a425750611ac0565b60028160010160146101000a81548160ff02191690836004811115611a6a57611a69613380565b5b021790555061012c42611a7d9190613a06565b8160060181905550847f70eca82567b065893a5e6cc590178b6b320855676b6a9a066625933e0c8ebe586002604051611ab69190613a39565b60405180910390a2505b50505050565b8160035f8281526020019081526020015f2060080160019054906101000a900460ff16611b28576040517f08c379a0000000000000000000000000000000000000000000000000000000008152600401611b1f906136e3565b60405180910390fd5b8260035f8281526020019081526020015f20600b015f3373ffffffffffffffffffffffffffffffffffffffff1673ffffffffffffffffffffffffffffffffffffffff1681526020019081526020015f205f9054906101000a900460ff16611bc4576040517f08c379a0000000000000000000000000000000000000000000000000000000008152600401611bbb9061374b565b60405180910390fd5b8360035f8281526020019081526020015f20600a015f3373ffffffffffffffffffffffffffffffffffffffff1673ffffffffffffffffffffffffffffffffffffffff1681526020019081526020015f205f0160159054906101000a900460ff16611c63576040517f08c379a0000000000000000000000000000000000000000000000000000000008152600401611c5a906137b3565b60405180910390fd5b846003806004811115611c7957611c78613380565b5b60035f8481526020019081526020015f2060010160149054906101000a900460ff166004811115611cad57611cac613380565b5b14611ced576040517f08c379a0000000000000000000000000000000000000000000000000000000008152600401611ce49061381b565b60405180910390fd5b5f60035f8981526020019081526020015f20905080600a015f3373ffffffffffffffffffffffffffffffffffffffff1673ffffffffffffffffffffffffffffffffffffffff1681526020019081526020015f205f0160169054906101000a900460ff1615611d90576040517f08c379a0000000000000000000000000000000000000000000000000000000008152600401611d8790613ceb565b60405180910390fd5b80600a015f8873ffffffffffffffffffffffffffffffffffffffff1673ffffffffffffffffffffffffffffffffffffffff1681526020019081526020015f205f0160159054906101000a900460ff16611e1e576040517f08c379a0000000000000000000000000000000000000000000000000000000008152600401611e1590613d53565b60405180910390fd5b8681600e015f3373ffffffffffffffffffffffffffffffffffffffff1673ffffffffffffffffffffffffffffffffffffffff1681526020019081526020015f205f6101000a81548173ffffffffffffffffffffffffffffffffffffffff021916908373ffffffffffffffffffffffffffffffffffffffff160217905550600181600a015f3373ffffffffffffffffffffffffffffffffffffffff1673ffffffffffffffffffffffffffffffffffffffff1681526020019081526020015f205f0160166101000a81548160ff02191690831515021790555080600a015f8873ffffffffffffffffffffffffffffffffffffffff1673ffffffffffffffffffffffffffffffffffffffff1681526020019081526020015f206001015f815480929190611f4790613b22565b919050555080600f015f815480929190611f6090613b22565b91905055508673ffffffffffffffffffffffffffffffffffffffff163373ffffffffffffffffffffffffffffffffffffffff16897fcfff1651bcea794952a516ce970ab17518a85210bd939aaeaac670a8d3e65ec760405160405180910390a45050505050505050565b8060035f8281526020019081526020015f2060080160019054906101000a900460ff1661202c576040517f08c379a0000000000000000000000000000000000000000000000000000000008152600401612023906136e3565b60405180910390fd5b815f80600481111561204157612040613380565b5b60035f8481526020019081526020015f2060010160149054906101000a900460ff16600481111561207557612074613380565b5b146120b5576040517f08c379a00000000000000000000000000000000000000000000000000000000081526004016120ac9061381b565b60405180910390fd5b5f60035f8681526020019081526020015f20905080600b015f3373ffffffffffffffffffffffffffffffffffffffff1673ffffffffffffffffffffffffffffffffffffffff1681526020019081526020015f205f9054906101000a900460ff1615612155576040517f08c379a000000000000000000000000000000000000000000000000000000000815260040161214c90613dbb565b60405180910390fd5b600a81600201541061219c576040517f08c379a000000000000000000000000000000000000000000000000000000000815260040161219390613e23565b60405180910390fd5b66038d7ea4c6800034146121e5576040517f08c379a00000000000000000000000000000000000000000000000000000000081526004016121dc90613e8b565b60405180910390fd5b600181600b015f3373ffffffffffffffffffffffffffffffffffffffff1673ffffffffffffffffffffffffffffffffffffffff1681526020019081526020015f205f6101000a81548160ff0219169083151502179055508060090133908060018154018082558091505060019003905f5260205f20015f9091909190916101000a81548173ffffffffffffffffffffffffffffffffffffffff021916908373ffffffffffffffffffffffffffffffffffffffff160217905550806002015f8154809291906122b290613b22565b919050555034816010015f8282546122ca9190613a06565b925050819055506040518060a001604052803373ffffffffffffffffffffffffffffffffffffffff1681526020015f600381111561230b5761230a613380565b5b81526020016001151581526020015f151581526020015f81525081600a015f3373ffffffffffffffffffffffffffffffffffffffff1673ffffffffffffffffffffffffffffffffffffffff1681526020019081526020015f205f820151815f015f6101000a81548173ffffffffffffffffffffffffffffffffffffffff021916908373ffffffffffffffffffffffffffffffffffffffff1602179055506020820151815f0160146101000a81548160ff021916908360038111156123d2576123d1613380565b5b02179055506040820151815f0160156101000a81548160ff0219169083151502179055506060820151815f0160166101000a81548160ff021916908315150217905550608082015181600101559050503373ffffffffffffffffffffffffffffffffffffffff16857f87969bc7faf902221a147b95ceba76e011c5efb0339a0a8ee7a2bb82d9cfbbd660405160405180910390a35050505050565b66038d7ea4c6800081565b60015f9054906101000a900473ffffffffffffffffffffffffffffffffffffffff1681565b5f5f60035f8481526020019081526020015f2090505f5f90505f5f90505f5f90505b83600201548110156125ad575f8460090182815481106124e2576124e1613ea9565b5b905f5260205f20015f9054906101000a900473ffffffffffffffffffffffffffffffffffffffff1690508285600a015f8373ffffffffffffffffffffffffffffffffffffffff1673ffffffffffffffffffffffffffffffffffffffff1681526020019081526020015f2060010154111561259f5784600a015f8273ffffffffffffffffffffffffffffffffffffffff1673ffffffffffffffffffffffffffffffffffffffff1681526020019081526020015f206001015492508093505b5080806001019150506124bf565b50819350505050919050565b5f60035f8481526020019081526020015f2090505f81600a015f8473ffffffffffffffffffffffffffffffffffffffff1673ffffffffffffffffffffffffffffffffffffffff1681526020019081526020015f205f0160156101000a81548160ff021916908315150217905550806003015f81548092919061263a90613ed6565b91905055506001600381111561265357612652613380565b5b81600a015f8473ffffffffffffffffffffffffffffffffffffffff1673ffffffffffffffffffffffffffffffffffffffff1681526020019081526020015f205f0160149054906101000a900460ff1660038111156126b4576126b3613380565b5b036126d757806004015f8154809291906126cd90613ed6565b91905055506126f1565b806005015f8154809291906126eb90613ed6565b91905055505b505050565b5f60035f8381526020019081526020015f2090505f5f90505b816002015481101561280a575f82600901828154811061273257612731613ea9565b5b905f5260205f20015f9054906101000a900473ffffffffffffffffffffffffffffffffffffffff1690505f83600a015f8373ffffffffffffffffffffffffffffffffffffffff1673ffffffffffffffffffffffffffffffffffffffff1681526020019081526020015f205f0160166101000a81548160ff0219169083151502179055505f83600a015f8373ffffffffffffffffffffffffffffffffffffffff1673ffffffffffffffffffffffffffffffffffffffff1681526020019081526020015f206001018190555050808060010191505061270f565b505050565b5f5f60035f8481526020019081526020015f20905080600501548160040154106128485761283e836001612aeb565b600191505061286d565b5f8160040154036128685761285e836002612aeb565b600191505061286d565b5f9150505b919050565b5f60035f8381526020019081526020015f2090505f600382600201546128989190613f2a565b90505f81036128a657600190505b5f4244856040516020016128bc93929190613f7a565b604051602081830303815290604052805190602001205f1c90505f5f90505b8360020154811015612ada575f8460090182815481106128fe576128fd613ea9565b5b905f5260205f20015f9054906101000a900473ffffffffffffffffffffffffffffffffffffffff169050838210156129b857600185600a015f8373ffffffffffffffffffffffffffffffffffffffff1673ffffffffffffffffffffffffffffffffffffffff1681526020019081526020015f205f0160146101000a81548160ff0219169083600381111561299557612994613380565b5b0217905550846004015f8154809291906129ae90613b22565b9190505550612acc565b838203612a4757600385600a015f8373ffffffffffffffffffffffffffffffffffffffff1673ffffffffffffffffffffffffffffffffffffffff1681526020019081526020015f205f0160146101000a81548160ff02191690836003811115612a2457612a23613380565b5b0217905550846005015f815480929190612a3d90613b22565b9190505550612acb565b600285600a015f8373ffffffffffffffffffffffffffffffffffffffff1673ffffffffffffffffffffffffffffffffffffffff1681526020019081526020015f205f0160146101000a81548160ff02191690836003811115612aac57612aab613380565b5b0217905550846005015f815480929190612ac590613b22565b91905055505b5b5080806001019150506128db565b50612ae58482613092565b50505050565b5f60035f8481526020019081526020015f20905060048160010160146101000a81548160ff02191690836004811115612b2757612b26613380565b5b02179055505f8160080160016101000a81548160ff02191690831515021790555081816008015f6101000a81548160ff02191690836002811115612b6e57612b6d613380565b5b02179055505f5f90505f5f90505b8260020154811015612d43575f836009018281548110612b9f57612b9e613ea9565b5b905f5260205f20015f9054906101000a900473ffffffffffffffffffffffffffffffffffffffff1690505f60016002811115612bde57612bdd613380565b5b866002811115612bf157612bf0613380565b5b148015612c70575060016003811115612c0d57612c0c613380565b5b85600a015f8473ffffffffffffffffffffffffffffffffffffffff1673ffffffffffffffffffffffffffffffffffffffff1681526020019081526020015f205f0160149054906101000a900460ff166003811115612c6e57612c6d613380565b5b145b80612d1d5750600280811115612c8957612c88613380565b5b866002811115612c9c57612c9b613380565b5b148015612d1c575060016003811115612cb857612cb7613380565b5b85600a015f8473ffffffffffffffffffffffffffffffffffffffff1673ffffffffffffffffffffffffffffffffffffffff1681526020019081526020015f205f0160149054906101000a900460ff166003811115612d1957612d18613380565b5b14155b5b90508015612d34578380612d3090613b22565b9450505b50508080600101915050612b7c565b505f81118015612d5657505f8260100154115b15613054575f818360100154612d6c9190613f2a565b90505f5f90505b8360020154811015613051575f846009018281548110612d9657612d95613ea9565b5b905f5260205f20015f9054906101000a900473ffffffffffffffffffffffffffffffffffffffff1690505f60016002811115612dd557612dd4613380565b5b876002811115612de857612de7613380565b5b148015612e67575060016003811115612e0457612e03613380565b5b86600a015f8473ffffffffffffffffffffffffffffffffffffffff1673ffffffffffffffffffffffffffffffffffffffff1681526020019081526020015f205f0160149054906101000a900460ff166003811115612e6557612e64613380565b5b145b80612f145750600280811115612e8057612e7f613380565b5b876002811115612e9357612e92613380565b5b148015612f13575060016003811115612eaf57612eae613380565b5b86600a015f8473ffffffffffffffffffffffffffffffffffffffff1673ffffffffffffffffffffffffffffffffffffffff1681526020019081526020015f205f0160149054906101000a900460ff166003811115612f1057612f0f613380565b5b14155b5b905080156130425760015f9054906101000a900473ffffffffffffffffffffffffffffffffffffffff1673ffffffffffffffffffffffffffffffffffffffff166340c10f198368056bc75e2d631000006040518363ffffffff1660e01b8152600401612f81929190613fc5565b5f604051808303815f87803b158015612f98575f5ffd5b505af1158015612faa573d5f5f3e3d5ffd5b505050508173ffffffffffffffffffffffffffffffffffffffff166108fc8590811502906040515f60405180830381858888f19350505050158015612ff1573d5f5f3e3d5ffd5b508173ffffffffffffffffffffffffffffffffffffffff16887fdc1d0b6a7cbfa6f3b2d4325bab5a169b265ad0b2b4022fb550364f0dfeeb6a74866040516130399190613367565b60405180910390a35b50508080600101915050612d73565b50505b837ff0da077ba749b17fae9e0aa141a4ce662e2a41574315eb32ce4aaaa5b75850d3846040516130849190613fec565b60405180910390a250505050565b5f60035f8481526020019081526020015f2090505f816002015490505f5f90505b8181101561324f575f81836130c89190614005565b85836040516020016130db929190614038565b604051602081830303815290604052805190602001205f1c6130fd9190614063565b826131089190613a06565b90505f84600901838154811061312157613120613ea9565b5b905f5260205f20015f9054906101000a900473ffffffffffffffffffffffffffffffffffffffff16905084600901828154811061316157613160613ea9565b5b905f5260205f20015f9054906101000a900473ffffffffffffffffffffffffffffffffffffffff1685600901848154811061319f5761319e613ea9565b5b905f5260205f20015f6101000a81548173ffffffffffffffffffffffffffffffffffffffff021916908373ffffffffffffffffffffffffffffffffffffffff160217905550808560090183815481106131fb576131fa613ea9565b5b905f5260205f20015f6101000a81548173ffffffffffffffffffffffffffffffffffffffff021916908373ffffffffffffffffffffffffffffffffffffffff160217905550505080806001019150506130b3565b5050505050565b5f5ffd5b5f819050919050565b61326c8161325a565b8114613276575f5ffd5b50565b5f8135905061328781613263565b92915050565b5f73ffffffffffffffffffffffffffffffffffffffff82169050919050565b5f6132b68261328d565b9050919050565b6132c6816132ac565b81146132d0575f5ffd5b50565b5f813590506132e1816132bd565b92915050565b5f5f604083850312156132fd576132fc613256565b5b5f61330a85828601613279565b925050602061331b858286016132d3565b9150509250929050565b5f8115159050919050565b61333981613325565b82525050565b5f6020820190506133525f830184613330565b92915050565b6133618161325a565b82525050565b5f60208201905061337a5f830184613358565b92915050565b7f4e487b71000000000000000000000000000000000000000000000000000000005f52602160045260245ffd5b600481106133be576133bd613380565b5b50565b5f8190506133ce826133ad565b919050565b5f6133dd826133c1565b9050919050565b6133ed816133d3565b82525050565b5f6080820190506134065f8301876133e4565b6134136020830186613330565b6134206040830185613330565b61342d6060830184613358565b95945050505050565b5f6020828403121561344b5761344a613256565b5b5f61345884828501613279565b91505092915050565b5f81519050919050565b5f82825260208201905092915050565b5f819050602082019050919050565b613493816132ac565b82525050565b5f6134a4838361348a565b60208301905092915050565b5f602082019050919050565b5f6134c682613461565b6134d0818561346b565b93506134db8361347b565b805f5b8381101561350b5781516134f28882613499565b97506134fd836134b0565b9250506001810190506134de565b5085935050505092915050565b5f6020820190508181035f83015261353081846134bc565b905092915050565b6005811061354957613548613380565b5b50565b5f81905061355982613538565b919050565b5f6135688261354c565b9050919050565b6135788161355e565b82525050565b6003811061358f5761358e613380565b5b50565b5f81905061359f8261357e565b919050565b5f6135ae82613592565b9050919050565b6135be816135a4565b82525050565b5f60a0820190506135d75f83018861356f565b6135e46020830187613358565b6135f16040830186613358565b6135fe6060830185613358565b61360b60808301846135b5565b9695505050505050565b5f819050919050565b5f61363861363361362e8461328d565b613615565b61328d565b9050919050565b5f6136498261361e565b9050919050565b5f61365a8261363f565b9050919050565b61366a81613650565b82525050565b5f6020820190506136835f830184613661565b92915050565b5f82825260208201905092915050565b7f47616d6520646f6573206e6f74206578697374000000000000000000000000005f82015250565b5f6136cd601383613689565b91506136d882613699565b602082019050919050565b5f6020820190508181035f8301526136fa816136c1565b9050919050565b7f4e6f74206120706c6179657200000000000000000000000000000000000000005f82015250565b5f613735600c83613689565b915061374082613701565b602082019050919050565b5f6020820190508181035f83015261376281613729565b9050919050565b7f506c6179657220697320646561640000000000000000000000000000000000005f82015250565b5f61379d600e83613689565b91506137a882613769565b602082019050919050565b5f6020820190508181035f8301526137ca81613791565b9050919050565b7f496e76616c69642067616d6520737461746500000000000000000000000000005f82015250565b5f613805601283613689565b9150613810826137d1565b602082019050919050565b5f6020820190508181035f830152613832816137f9565b9050919050565b7f4f6e6c79204d616669612063616e206b696c6c000000000000000000000000005f82015250565b5f61386d601383613689565b915061387882613839565b602082019050919050565b5f6020820190508181035f83015261389a81613861565b9050919050565b7f54617267657420697320616c72656164792064656164000000000000000000005f82015250565b5f6138d5601683613689565b91506138e0826138a1565b602082019050919050565b5f6020820190508181035f830152613902816138c9565b9050919050565b7f43616e6e6f742074617267657420796f757273656c66000000000000000000005f82015250565b5f61393d601683613689565b915061394882613909565b602082019050919050565b5f6020820190508181035f83015261396a81613931565b9050919050565b7f446179207068617365206e6f7420656e646564000000000000000000000000005f82015250565b5f6139a5601383613689565b91506139b082613971565b602082019050919050565b5f6020820190508181035f8301526139d281613999565b9050919050565b7f4e487b71000000000000000000000000000000000000000000000000000000005f52601160045260245ffd5b5f613a108261325a565b9150613a1b8361325a565b9250828201905080821115613a3357613a326139d9565b5b92915050565b5f602082019050613a4c5f83018461356f565b92915050565b7f4f6e6c7920446f63746f722063616e206865616c0000000000000000000000005f82015250565b5f613a86601483613689565b9150613a9182613a52565b602082019050919050565b5f6020820190508181035f830152613ab381613a7a565b9050919050565b7f566f74696e67206e6f7420636f6d706c657465000000000000000000000000005f82015250565b5f613aee601383613689565b9150613af982613aba565b602082019050919050565b5f6020820190508181035f830152613b1b81613ae2565b9050919050565b5f613b2c8261325a565b91507fffffffffffffffffffffffffffffffffffffffffffffffffffffffffffffffff8203613b5e57613b5d6139d9565b5b600182019050919050565b7f4f6e6c792063726561746f722063616e207374617274000000000000000000005f82015250565b5f613b9d601683613689565b9150613ba882613b69565b602082019050919050565b5f6020820190508181035f830152613bca81613b91565b9050919050565b7f4e6f7420656e6f75676820706c617965727300000000000000000000000000005f82015250565b5f613c05601283613689565b9150613c1082613bd1565b602082019050919050565b5f6020820190508181035f830152613c3281613bf9565b9050919050565b7f5068617365206e6f7420656e64656420796574000000000000000000000000005f82015250565b5f613c6d601383613689565b9150613c7882613c39565b602082019050919050565b5f6020820190508181035f830152613c9a81613c61565b9050919050565b7f416c726561647920766f746564000000000000000000000000000000000000005f82015250565b5f613cd5600d83613689565b9150613ce082613ca1565b602082019050919050565b5f6020820190508181035f830152613d0281613cc9565b9050919050565b7f54617267657420697320646561640000000000000000000000000000000000005f82015250565b5f613d3d600e83613689565b9150613d4882613d09565b602082019050919050565b5f6020820190508181035f830152613d6a81613d31565b9050919050565b7f416c7265616479206a6f696e65640000000000000000000000000000000000005f82015250565b5f613da5600e83613689565b9150613db082613d71565b602082019050919050565b5f6020820190508181035f830152613dd281613d99565b9050919050565b7f47616d652069732066756c6c00000000000000000000000000000000000000005f82015250565b5f613e0d600c83613689565b9150613e1882613dd9565b602082019050919050565b5f6020820190508181035f830152613e3a81613e01565b9050919050565b7f4d7573742070617920302e3030312045544820656e74727920666565000000005f82015250565b5f613e75601c83613689565b9150613e8082613e41565b602082019050919050565b5f6020820190508181035f830152613ea281613e69565b9050919050565b7f4e487b71000000000000000000000000000000000000000000000000000000005f52603260045260245ffd5b5f613ee08261325a565b91505f8203613ef257613ef16139d9565b5b600182039050919050565b7f4e487b71000000000000000000000000000000000000000000000000000000005f52601260045260245ffd5b5f613f348261325a565b9150613f3f8361325a565b925082613f4f57613f4e613efd565b5b828204905092915050565b5f819050919050565b613f74613f6f8261325a565b613f5a565b82525050565b5f613f858286613f63565b602082019150613f958285613f63565b602082019150613fa58284613f63565b602082019150819050949350505050565b613fbf816132ac565b82525050565b5f604082019050613fd85f830185613fb6565b613fe56020830184613358565b9392505050565b5f602082019050613fff5f8301846135b5565b92915050565b5f61400f8261325a565b915061401a8361325a565b9250828203905081811115614032576140316139d9565b5b92915050565b5f6140438285613f63565b6020820191506140538284613f63565b6020820191508190509392505050565b5f61406d8261325a565b91506140788361325a565b92508261408857614087613efd565b5b82820690509291505056fea264697066735822122064898ea117154c3b5a1865194863b4625ce951dfa0bfb13749423c457928c9ef64736f6c634300081c0033",
  "linkReferences": {},
  "deployedLinkReferences": {},
  "immutableReferences": {},
  "inputSourceName": "project/contracts/MafiaGame.sol",
  "buildInfoId": "solc-0_8_28-d81e8f512f720faece18f938fc8a109505a0b644"
}